{
  "address": "0x4ee6790cb522ca40E993571E545b7cd0837395Af",
  "abi": [
    {
      "inputs": [],
      "name": "amount1",
      "outputs": [
        {
          "internalType": "uint256",
          "name": "",
          "type": "uint256"
        }
      ],
      "stateMutability": "view",
      "type": "function"
    },
    {
      "inputs": [],
      "name": "amount2",
      "outputs": [
        {
          "internalType": "uint256",
          "name": "",
          "type": "uint256"
        }
      ],
      "stateMutability": "view",
      "type": "function"
    },
    {
      "inputs": [],
      "name": "amount3",
      "outputs": [
        {
          "internalType": "uint256",
          "name": "",
          "type": "uint256"
        }
      ],
      "stateMutability": "view",
      "type": "function"
    },
    {
      "inputs": [],
      "name": "test1",
      "outputs": [],
      "stateMutability": "payable",
      "type": "function"
    },
    {
      "inputs": [],
      "name": "test2",
      "outputs": [],
      "stateMutability": "payable",
      "type": "function"
    },
    {
      "inputs": [],
      "name": "test3",
      "outputs": [],
      "stateMutability": "payable",
      "type": "function"
    },
    {
      "inputs": [],
      "name": "total",
      "outputs": [
        {
          "internalType": "uint256",
          "name": "",
          "type": "uint256"
        }
      ],
      "stateMutability": "view",
      "type": "function"
    },
    {
      "inputs": [],
      "name": "withdraw",
      "outputs": [],
      "stateMutability": "nonpayable",
      "type": "function"
    }
  ],
  "transactionHash": "0x0683cf3b7b42f2d8227deb6b19a63b0ed55bd412b59cde45283406e83f52b9c2",
  "args": [],
  "numDeployments": 1,
  "solcInputHash": "0a384907379f36a2527727f98c49040c",
  "bytecode": "0x60806040526000805560006001556000600255600060035534801561002357600080fd5b50610263806100336000396000f3fe60806040526004361061007b5760003560e01c806366e41cb71161004e57806366e41cb7146100f75780636b59084d146101015780637543af9c1461010b578063f400fde4146101365761007b565b8063057bfcc7146100805780630a8e8e01146100ab5780632ddbd13a146100b55780633ccfd60b146100e0575b600080fd5b34801561008c57600080fd5b50610095610161565b6040516100a29190610212565b60405180910390f35b6100b3610167565b005b3480156100c157600080fd5b506100ca610177565b6040516100d79190610212565b60405180910390f35b3480156100ec57600080fd5b506100f561017d565b005b6100ff6101cd565b005b6101096101dd565b005b34801561011757600080fd5b506101206101ed565b60405161012d9190610212565b60405180910390f35b34801561014257600080fd5b5061014b6101f3565b6040516101589190610212565b60405180910390f35b60015481565b3460028190555047600381905550565b60035481565b3373ffffffffffffffffffffffffffffffffffffffff166108fc479081150290604051600060405180830381858888f193505050501580156101c3573d6000803e3d6000fd5b5047600381905550565b3460018190555047600381905550565b3460008190555047600381905550565b60025481565b60005481565b6000819050919050565b61020c816101f9565b82525050565b60006020820190506102276000830184610203565b9291505056fea264697066735822122039f5de95d69e719cf6b61f134525e1ba357af62ccacbb0de68b7feb33c1856f764736f6c634300080d0033",
  "devdoc": {
    "kind": "dev",
    "methods": {},
    "version": 1
  },
  "userdoc": {
    "kind": "user",
    "methods": {},
    "version": 1
  },
  "storageLayout": {
    "storage": [
      {
        "astId": 4,
        "contract": "contracts/Test.sol:Test",
        "label": "amount1",
        "offset": 0,
        "slot": "0",
        "type": "t_uint256"
      },
      {
        "astId": 7,
        "contract": "contracts/Test.sol:Test",
        "label": "amount2",
        "offset": 0,
        "slot": "1",
        "type": "t_uint256"
      },
      {
        "astId": 10,
        "contract": "contracts/Test.sol:Test",
        "label": "amount3",
        "offset": 0,
        "slot": "2",
        "type": "t_uint256"
      },
      {
        "astId": 13,
        "contract": "contracts/Test.sol:Test",
        "label": "total",
        "offset": 0,
        "slot": "3",
        "type": "t_uint256"
      }
    ],
    "types": {
      "t_uint256": {
        "encoding": "inplace",
        "label": "uint256",
        "numberOfBytes": "32"
      }
    }
  }
}